{
  "_format": "hh-sol-artifact-1",
  "contractName": "Stake",
  "sourceName": "contracts/Stake.sol",
  "abi": [
    {
      "inputs": [],
      "stateMutability": "nonpayable",
      "type": "constructor"
    },
    {
      "anonymous": false,
      "inputs": [
        {
          "indexed": true,
          "internalType": "address",
          "name": "owner",
          "type": "address"
        },
        {
          "indexed": true,
          "internalType": "address",
          "name": "spender",
          "type": "address"
        },
        {
          "indexed": false,
          "internalType": "uint256",
          "name": "value",
          "type": "uint256"
        }
      ],
      "name": "Approval",
      "type": "event"
    },
    {
      "anonymous": false,
      "inputs": [
        {
          "indexed": true,
          "internalType": "address",
          "name": "from",
          "type": "address"
        },
        {
          "indexed": true,
          "internalType": "address",
          "name": "to",
          "type": "address"
        },
        {
          "indexed": false,
          "internalType": "uint256",
          "name": "value",
          "type": "uint256"
        }
      ],
      "name": "Transfer",
      "type": "event"
    },
    {
      "inputs": [
        {
          "internalType": "address",
          "name": "owner",
          "type": "address"
        },
        {
          "internalType": "address",
          "name": "spender",
          "type": "address"
        }
      ],
      "name": "allowance",
      "outputs": [
        {
          "internalType": "uint256",
          "name": "",
          "type": "uint256"
        }
      ],
      "stateMutability": "view",
      "type": "function"
    },
    {
      "inputs": [
        {
          "internalType": "address",
          "name": "spender",
          "type": "address"
        },
        {
          "internalType": "uint256",
          "name": "amount",
          "type": "uint256"
        }
      ],
      "name": "approve",
      "outputs": [
        {
          "internalType": "bool",
          "name": "",
          "type": "bool"
        }
      ],
      "stateMutability": "nonpayable",
      "type": "function"
    },
    {
      "inputs": [
        {
          "internalType": "address",
          "name": "account",
          "type": "address"
        }
      ],
      "name": "balanceOf",
      "outputs": [
        {
          "internalType": "uint256",
          "name": "",
          "type": "uint256"
        }
      ],
      "stateMutability": "view",
      "type": "function"
    },
    {
      "inputs": [],
      "name": "claim",
      "outputs": [],
      "stateMutability": "nonpayable",
      "type": "function"
    },
    {
      "inputs": [],
      "name": "decimals",
      "outputs": [
        {
          "internalType": "uint8",
          "name": "",
          "type": "uint8"
        }
      ],
      "stateMutability": "view",
      "type": "function"
    },
    {
      "inputs": [
        {
          "internalType": "address",
          "name": "spender",
          "type": "address"
        },
        {
          "internalType": "uint256",
          "name": "subtractedValue",
          "type": "uint256"
        }
      ],
      "name": "decreaseAllowance",
      "outputs": [
        {
          "internalType": "bool",
          "name": "",
          "type": "bool"
        }
      ],
      "stateMutability": "nonpayable",
      "type": "function"
    },
    {
      "inputs": [
        {
          "internalType": "address",
          "name": "spender",
          "type": "address"
        },
        {
          "internalType": "uint256",
          "name": "addedValue",
          "type": "uint256"
        }
      ],
      "name": "increaseAllowance",
      "outputs": [
        {
          "internalType": "bool",
          "name": "",
          "type": "bool"
        }
      ],
      "stateMutability": "nonpayable",
      "type": "function"
    },
    {
      "inputs": [
        {
          "internalType": "uint256",
          "name": "amount",
          "type": "uint256"
        }
      ],
      "name": "mint",
      "outputs": [],
      "stateMutability": "nonpayable",
      "type": "function"
    },
    {
      "inputs": [],
      "name": "name",
      "outputs": [
        {
          "internalType": "string",
          "name": "",
          "type": "string"
        }
      ],
      "stateMutability": "view",
      "type": "function"
    },
    {
      "inputs": [
        {
          "internalType": "uint256",
          "name": "amount",
          "type": "uint256"
        }
      ],
      "name": "stake",
      "outputs": [],
      "stateMutability": "nonpayable",
      "type": "function"
    },
    {
      "inputs": [
        {
          "internalType": "address",
          "name": "",
          "type": "address"
        }
      ],
      "name": "staked",
      "outputs": [
        {
          "internalType": "uint256",
          "name": "",
          "type": "uint256"
        }
      ],
      "stateMutability": "view",
      "type": "function"
    },
    {
      "inputs": [
        {
          "internalType": "address",
          "name": "",
          "type": "address"
        }
      ],
      "name": "stakedFromTs",
      "outputs": [
        {
          "internalType": "uint256",
          "name": "",
          "type": "uint256"
        }
      ],
      "stateMutability": "view",
      "type": "function"
    },
    {
      "inputs": [],
      "name": "symbol",
      "outputs": [
        {
          "internalType": "string",
          "name": "",
          "type": "string"
        }
      ],
      "stateMutability": "view",
      "type": "function"
    },
    {
      "inputs": [],
      "name": "totalSupply",
      "outputs": [
        {
          "internalType": "uint256",
          "name": "",
          "type": "uint256"
        }
      ],
      "stateMutability": "view",
      "type": "function"
    },
    {
      "inputs": [
        {
          "internalType": "address",
          "name": "to",
          "type": "address"
        },
        {
          "internalType": "uint256",
          "name": "amount",
          "type": "uint256"
        }
      ],
      "name": "transfer",
      "outputs": [
        {
          "internalType": "bool",
          "name": "",
          "type": "bool"
        }
      ],
      "stateMutability": "nonpayable",
      "type": "function"
    },
    {
      "inputs": [
        {
          "internalType": "address",
          "name": "from",
          "type": "address"
        },
        {
          "internalType": "address",
          "name": "to",
          "type": "address"
        },
        {
          "internalType": "uint256",
          "name": "amount",
          "type": "uint256"
        }
      ],
      "name": "transferFrom",
      "outputs": [
        {
          "internalType": "bool",
          "name": "",
          "type": "bool"
        }
      ],
      "stateMutability": "nonpayable",
      "type": "function"
    },
    {
      "inputs": [
        {
          "internalType": "uint256",
          "name": "amount",
          "type": "uint256"
        }
      ],
      "name": "unstake",
      "outputs": [],
      "stateMutability": "nonpayable",
      "type": "function"
    }
  ],
  "bytecode": "0x60806040523480156200001157600080fd5b506040518060400160405280600d81526020017f4669786564205374616b696e67000000000000000000000000000000000000008152506040518060400160405280600381526020017f466978000000000000000000000000000000000000000000000000000000000081525081600390816200008f9190620004b0565b508060049081620000a19190620004b0565b505050620000b933620186a0620000bf60201b60201c565b620006b2565b600073ffffffffffffffffffffffffffffffffffffffff168273ffffffffffffffffffffffffffffffffffffffff160362000131576040517f08c379a00000000000000000000000000000000000000000000000000000000081526004016200012890620005f8565b60405180910390fd5b62000145600083836200022c60201b60201c565b806002600082825462000159919062000649565b92505081905550806000808473ffffffffffffffffffffffffffffffffffffffff1673ffffffffffffffffffffffffffffffffffffffff168152602001908152602001600020600082825401925050819055508173ffffffffffffffffffffffffffffffffffffffff16600073ffffffffffffffffffffffffffffffffffffffff167fddf252ad1be2c89b69c2b068fc378daa952ba7f163c4a11628f55a4df523b3ef836040516200020c919062000695565b60405180910390a362000228600083836200023160201b60201c565b5050565b505050565b505050565b600081519050919050565b7f4e487b7100000000000000000000000000000000000000000000000000000000600052604160045260246000fd5b7f4e487b7100000000000000000000000000000000000000000000000000000000600052602260045260246000fd5b60006002820490506001821680620002b857607f821691505b602082108103620002ce57620002cd62000270565b5b50919050565b60008190508160005260206000209050919050565b60006020601f8301049050919050565b600082821b905092915050565b600060088302620003387fffffffffffffffffffffffffffffffffffffffffffffffffffffffffffffffff82620002f9565b620003448683620002f9565b95508019841693508086168417925050509392505050565b6000819050919050565b6000819050919050565b6000620003916200038b62000385846200035c565b62000366565b6200035c565b9050919050565b6000819050919050565b620003ad8362000370565b620003c5620003bc8262000398565b84845462000306565b825550505050565b600090565b620003dc620003cd565b620003e9818484620003a2565b505050565b5b81811015620004115762000405600082620003d2565b600181019050620003ef565b5050565b601f82111562000460576200042a81620002d4565b6200043584620002e9565b8101602085101562000445578190505b6200045d6200045485620002e9565b830182620003ee565b50505b505050565b600082821c905092915050565b6000620004856000198460080262000465565b1980831691505092915050565b6000620004a0838362000472565b9150826002028217905092915050565b620004bb8262000236565b67ffffffffffffffff811115620004d757620004d662000241565b5b620004e382546200029f565b620004f082828562000415565b600060209050601f83116001811462000528576000841562000513578287015190505b6200051f858262000492565b8655506200058f565b601f1984166200053886620002d4565b60005b8281101562000562578489015182556001820191506020850194506020810190506200053b565b868310156200058257848901516200057e601f89168262000472565b8355505b6001600288020188555050505b505050505050565b600082825260208201905092915050565b7f45524332303a206d696e7420746f20746865207a65726f206164647265737300600082015250565b6000620005e0601f8362000597565b9150620005ed82620005a8565b602082019050919050565b600060208201905081810360008301526200061381620005d1565b9050919050565b7f4e487b7100000000000000000000000000000000000000000000000000000000600052601160045260246000fd5b600062000656826200035c565b915062000663836200035c565b92508282019050808211156200067e576200067d6200061a565b5b92915050565b6200068f816200035c565b82525050565b6000602082019050620006ac600083018462000684565b92915050565b611c3a80620006c26000396000f3fe608060405234801561001057600080fd5b506004361061010b5760003560e01c806361abbbd6116100a2578063a0712d6811610071578063a0712d68146102ce578063a457c2d7146102ea578063a694fc3a1461031a578063a9059cbb14610336578063dd62ed3e146103665761010b565b806361abbbd61461022057806370a082311461025057806395d89b411461028057806398807d841461029e5761010b565b80632e17de78116100de5780632e17de78146101ac578063313ce567146101c857806339509351146101e65780634e71d92d146102165761010b565b806306fdde0314610110578063095ea7b31461012e57806318160ddd1461015e57806323b872dd1461017c575b600080fd5b610118610396565b60405161012591906111f8565b60405180910390f35b610148600480360381019061014391906112b3565b610428565b604051610155919061130e565b60405180910390f35b61016661044b565b6040516101739190611338565b60405180910390f35b61019660048036038101906101919190611353565b610455565b6040516101a3919061130e565b60405180910390f35b6101c660048036038101906101c191906113a6565b610484565b005b6101d06105b5565b6040516101dd91906113ef565b60405180910390f35b61020060048036038101906101fb91906112b3565b6105be565b60405161020d919061130e565b60405180910390f35b61021e6105f5565b005b61023a6004803603810190610235919061140a565b610776565b6040516102479190611338565b60405180910390f35b61026a6004803603810190610265919061140a565b61078e565b6040516102779190611338565b60405180910390f35b6102886107d6565b60405161029591906111f8565b60405180910390f35b6102b860048036038101906102b3919061140a565b610868565b6040516102c59190611338565b60405180910390f35b6102e860048036038101906102e391906113a6565b610880565b005b61030460048036038101906102ff91906112b3565b61088d565b604051610311919061130e565b60405180910390f35b610334600480360381019061032f91906113a6565b610904565b005b610350600480360381019061034b91906112b3565b610a8b565b60405161035d919061130e565b60405180910390f35b610380600480360381019061037b9190611437565b610aae565b60405161038d9190611338565b60405180910390f35b6060600380546103a5906114a6565b80601f01602080910402602001604051908101604052809291908181526020018280546103d1906114a6565b801561041e5780601f106103f35761010080835404028352916020019161041e565b820191906000526020600020905b81548152906001019060200180831161040157829003601f168201915b5050505050905090565b600080610433610b35565b9050610440818585610b3d565b600191505092915050565b6000600254905090565b600080610460610b35565b905061046d858285610d06565b610478858585610d92565b60019150509392505050565b600081116104c7576040517f08c379a00000000000000000000000000000000000000000000000000000000081526004016104be90611523565b60405180910390fd5b80600560003373ffffffffffffffffffffffffffffffffffffffff1673ffffffffffffffffffffffffffffffffffffffff168152602001908152602001600020541015610549576040517f08c379a00000000000000000000000000000000000000000000000000000000081526004016105409061158f565b60405180910390fd5b6105516105f5565b80600560003373ffffffffffffffffffffffffffffffffffffffff1673ffffffffffffffffffffffffffffffffffffffff16815260200190815260200160002060008282546105a091906115de565b925050819055506105b2303383610d92565b50565b60006012905090565b6000806105c9610b35565b90506105ea8185856105db8589610aae565b6105e59190611612565b610b3d565b600191505092915050565b6000600560003373ffffffffffffffffffffffffffffffffffffffff1673ffffffffffffffffffffffffffffffffffffffff1681526020019081526020016000205411610677576040517f08c379a000000000000000000000000000000000000000000000000000000000815260040161066e90611692565b60405180910390fd5b6000600660003373ffffffffffffffffffffffffffffffffffffffff1673ffffffffffffffffffffffffffffffffffffffff16815260200190815260200160002054426106c491906115de565b905060006301e1432082600560003373ffffffffffffffffffffffffffffffffffffffff1673ffffffffffffffffffffffffffffffffffffffff1681526020019081526020016000205461071891906116b2565b6107229190611723565b905061072e3382611008565b42600660003373ffffffffffffffffffffffffffffffffffffffff1673ffffffffffffffffffffffffffffffffffffffff168152602001908152602001600020819055505050565b60066020528060005260406000206000915090505481565b60008060008373ffffffffffffffffffffffffffffffffffffffff1673ffffffffffffffffffffffffffffffffffffffff168152602001908152602001600020549050919050565b6060600480546107e5906114a6565b80601f0160208091040260200160405190810160405280929190818152602001828054610811906114a6565b801561085e5780601f106108335761010080835404028352916020019161085e565b820191906000526020600020905b81548152906001019060200180831161084157829003601f168201915b5050505050905090565b60056020528060005260406000206000915090505481565b61088a3382611008565b50565b600080610898610b35565b905060006108a68286610aae565b9050838110156108eb576040517f08c379a00000000000000000000000000000000000000000000000000000000081526004016108e2906117c6565b60405180910390fd5b6108f88286868403610b3d565b60019250505092915050565b60008111610947576040517f08c379a000000000000000000000000000000000000000000000000000000000815260040161093e90611523565b60405180910390fd5b806109513361078e565b1015610992576040517f08c379a000000000000000000000000000000000000000000000000000000000815260040161098990611832565b60405180910390fd5b61099d333083610d92565b6000600560003373ffffffffffffffffffffffffffffffffffffffff1673ffffffffffffffffffffffffffffffffffffffff1681526020019081526020016000205411156109ee576109ed6105f5565b5b42600660003373ffffffffffffffffffffffffffffffffffffffff1673ffffffffffffffffffffffffffffffffffffffff1681526020019081526020016000208190555080600560003373ffffffffffffffffffffffffffffffffffffffff1673ffffffffffffffffffffffffffffffffffffffff1681526020019081526020016000206000828254610a819190611612565b9250508190555050565b600080610a96610b35565b9050610aa3818585610d92565b600191505092915050565b6000600160008473ffffffffffffffffffffffffffffffffffffffff1673ffffffffffffffffffffffffffffffffffffffff16815260200190815260200160002060008373ffffffffffffffffffffffffffffffffffffffff1673ffffffffffffffffffffffffffffffffffffffff16815260200190815260200160002054905092915050565b600033905090565b600073ffffffffffffffffffffffffffffffffffffffff168373ffffffffffffffffffffffffffffffffffffffff1603610bac576040517f08c379a0000000000000000000000000000000000000000000000000000000008152600401610ba3906118c4565b60405180910390fd5b600073ffffffffffffffffffffffffffffffffffffffff168273ffffffffffffffffffffffffffffffffffffffff1603610c1b576040517f08c379a0000000000000000000000000000000000000000000000000000000008152600401610c1290611956565b60405180910390fd5b80600160008573ffffffffffffffffffffffffffffffffffffffff1673ffffffffffffffffffffffffffffffffffffffff16815260200190815260200160002060008473ffffffffffffffffffffffffffffffffffffffff1673ffffffffffffffffffffffffffffffffffffffff168152602001908152602001600020819055508173ffffffffffffffffffffffffffffffffffffffff168373ffffffffffffffffffffffffffffffffffffffff167f8c5be1e5ebec7d5bd14f71427d1e84f3dd0314c0f7b2291e5b200ac8c7c3b92583604051610cf99190611338565b60405180910390a3505050565b6000610d128484610aae565b90507fffffffffffffffffffffffffffffffffffffffffffffffffffffffffffffffff8114610d8c5781811015610d7e576040517f08c379a0000000000000000000000000000000000000000000000000000000008152600401610d75906119c2565b60405180910390fd5b610d8b8484848403610b3d565b5b50505050565b600073ffffffffffffffffffffffffffffffffffffffff168373ffffffffffffffffffffffffffffffffffffffff1603610e01576040517f08c379a0000000000000000000000000000000000000000000000000000000008152600401610df890611a54565b60405180910390fd5b600073ffffffffffffffffffffffffffffffffffffffff168273ffffffffffffffffffffffffffffffffffffffff1603610e70576040517f08c379a0000000000000000000000000000000000000000000000000000000008152600401610e6790611ae6565b60405180910390fd5b610e7b83838361115e565b60008060008573ffffffffffffffffffffffffffffffffffffffff1673ffffffffffffffffffffffffffffffffffffffff16815260200190815260200160002054905081811015610f01576040517f08c379a0000000000000000000000000000000000000000000000000000000008152600401610ef890611b78565b60405180910390fd5b8181036000808673ffffffffffffffffffffffffffffffffffffffff1673ffffffffffffffffffffffffffffffffffffffff16815260200190815260200160002081905550816000808573ffffffffffffffffffffffffffffffffffffffff1673ffffffffffffffffffffffffffffffffffffffff168152602001908152602001600020600082825401925050819055508273ffffffffffffffffffffffffffffffffffffffff168473ffffffffffffffffffffffffffffffffffffffff167fddf252ad1be2c89b69c2b068fc378daa952ba7f163c4a11628f55a4df523b3ef84604051610fef9190611338565b60405180910390a3611002848484611163565b50505050565b600073ffffffffffffffffffffffffffffffffffffffff168273ffffffffffffffffffffffffffffffffffffffff1603611077576040517f08c379a000000000000000000000000000000000000000000000000000000000815260040161106e90611be4565b60405180910390fd5b6110836000838361115e565b80600260008282546110959190611612565b92505081905550806000808473ffffffffffffffffffffffffffffffffffffffff1673ffffffffffffffffffffffffffffffffffffffff168152602001908152602001600020600082825401925050819055508173ffffffffffffffffffffffffffffffffffffffff16600073ffffffffffffffffffffffffffffffffffffffff167fddf252ad1be2c89b69c2b068fc378daa952ba7f163c4a11628f55a4df523b3ef836040516111469190611338565b60405180910390a361115a60008383611163565b5050565b505050565b505050565b600081519050919050565b600082825260208201905092915050565b60005b838110156111a2578082015181840152602081019050611187565b60008484015250505050565b6000601f19601f8301169050919050565b60006111ca82611168565b6111d48185611173565b93506111e4818560208601611184565b6111ed816111ae565b840191505092915050565b6000602082019050818103600083015261121281846111bf565b905092915050565b600080fd5b600073ffffffffffffffffffffffffffffffffffffffff82169050919050565b600061124a8261121f565b9050919050565b61125a8161123f565b811461126557600080fd5b50565b60008135905061127781611251565b92915050565b6000819050919050565b6112908161127d565b811461129b57600080fd5b50565b6000813590506112ad81611287565b92915050565b600080604083850312156112ca576112c961121a565b5b60006112d885828601611268565b92505060206112e98582860161129e565b9150509250929050565b60008115159050919050565b611308816112f3565b82525050565b600060208201905061132360008301846112ff565b92915050565b6113328161127d565b82525050565b600060208201905061134d6000830184611329565b92915050565b60008060006060848603121561136c5761136b61121a565b5b600061137a86828701611268565b935050602061138b86828701611268565b925050604061139c8682870161129e565b9150509250925092565b6000602082840312156113bc576113bb61121a565b5b60006113ca8482850161129e565b91505092915050565b600060ff82169050919050565b6113e9816113d3565b82525050565b600060208201905061140460008301846113e0565b92915050565b6000602082840312156114205761141f61121a565b5b600061142e84828501611268565b91505092915050565b6000806040838503121561144e5761144d61121a565b5b600061145c85828601611268565b925050602061146d85828601611268565b9150509250929050565b7f4e487b7100000000000000000000000000000000000000000000000000000000600052602260045260246000fd5b600060028204905060018216806114be57607f821691505b6020821081036114d1576114d0611477565b5b50919050565b7f416d6f756e74206d7573742062652067726561746572207468616e2030000000600082015250565b600061150d601d83611173565b9150611518826114d7565b602082019050919050565b6000602082019050818103600083015261153c81611500565b9050919050565b7f496e73756666696369656e74207374616b656420616d6f756e74000000000000600082015250565b6000611579601a83611173565b915061158482611543565b602082019050919050565b600060208201905081810360008301526115a88161156c565b9050919050565b7f4e487b7100000000000000000000000000000000000000000000000000000000600052601160045260246000fd5b60006115e98261127d565b91506115f48361127d565b925082820390508181111561160c5761160b6115af565b5b92915050565b600061161d8261127d565b91506116288361127d565b92508282019050808211156116405761163f6115af565b5b92915050565b7f4e6f207374616b656420616d6f756e7400000000000000000000000000000000600082015250565b600061167c601083611173565b915061168782611646565b602082019050919050565b600060208201905081810360008301526116ab8161166f565b9050919050565b60006116bd8261127d565b91506116c88361127d565b92508282026116d68161127d565b915082820484148315176116ed576116ec6115af565b5b5092915050565b7f4e487b7100000000000000000000000000000000000000000000000000000000600052601260045260246000fd5b600061172e8261127d565b91506117398361127d565b925082611749576117486116f4565b5b828204905092915050565b7f45524332303a2064656372656173656420616c6c6f77616e63652062656c6f7760008201527f207a65726f000000000000000000000000000000000000000000000000000000602082015250565b60006117b0602583611173565b91506117bb82611754565b604082019050919050565b600060208201905081810360008301526117df816117a3565b9050919050565b7f496e73756666696369656e742062616c616e6365000000000000000000000000600082015250565b600061181c601483611173565b9150611827826117e6565b602082019050919050565b6000602082019050818103600083015261184b8161180f565b9050919050565b7f45524332303a20617070726f76652066726f6d20746865207a65726f2061646460008201527f7265737300000000000000000000000000000000000000000000000000000000602082015250565b60006118ae602483611173565b91506118b982611852565b604082019050919050565b600060208201905081810360008301526118dd816118a1565b9050919050565b7f45524332303a20617070726f766520746f20746865207a65726f20616464726560008201527f7373000000000000000000000000000000000000000000000000000000000000602082015250565b6000611940602283611173565b915061194b826118e4565b604082019050919050565b6000602082019050818103600083015261196f81611933565b9050919050565b7f45524332303a20696e73756666696369656e7420616c6c6f77616e6365000000600082015250565b60006119ac601d83611173565b91506119b782611976565b602082019050919050565b600060208201905081810360008301526119db8161199f565b9050919050565b7f45524332303a207472616e736665722066726f6d20746865207a65726f20616460008201527f6472657373000000000000000000000000000000000000000000000000000000602082015250565b6000611a3e602583611173565b9150611a49826119e2565b604082019050919050565b60006020820190508181036000830152611a6d81611a31565b9050919050565b7f45524332303a207472616e7366657220746f20746865207a65726f206164647260008201527f6573730000000000000000000000000000000000000000000000000000000000602082015250565b6000611ad0602383611173565b9150611adb82611a74565b604082019050919050565b60006020820190508181036000830152611aff81611ac3565b9050919050565b7f45524332303a207472616e7366657220616d6f756e742065786365656473206260008201527f616c616e63650000000000000000000000000000000000000000000000000000602082015250565b6000611b62602683611173565b9150611b6d82611b06565b604082019050919050565b60006020820190508181036000830152611b9181611b55565b9050919050565b7f45524332303a206d696e7420746f20746865207a65726f206164647265737300600082015250565b6000611bce601f83611173565b9150611bd982611b98565b602082019050919050565b60006020820190508181036000830152611bfd81611bc1565b905091905056fea2646970667358221220ccb2e658f9613b6e30b77a33f8c38caffcfe878b73d408c784f64fc1c756387164736f6c63430008110033",
  "linkReferences": {},
  "deployedLinkReferences": {}
}